{
  "_format": "hh-sol-artifact-1",
  "contractName": "BadgeToken",
  "sourceName": "contracts/BadgeToken.sol",
  "abi": [
    {
      "inputs": [
        {
          "internalType": "string",
          "name": "_name",
          "type": "string"
        },
        {
          "internalType": "string",
          "name": "_symbol",
          "type": "string"
        }
      ],
      "stateMutability": "nonpayable",
      "type": "constructor"
    },
    {
      "anonymous": false,
      "inputs": [
        {
          "indexed": true,
          "internalType": "address",
          "name": "owner",
          "type": "address"
        },
        {
          "indexed": true,
          "internalType": "address",
          "name": "approved",
          "type": "address"
        },
        {
          "indexed": true,
          "internalType": "uint256",
          "name": "tokenId",
          "type": "uint256"
        }
      ],
      "name": "Approval",
      "type": "event"
    },
    {
      "anonymous": false,
      "inputs": [
        {
          "indexed": true,
          "internalType": "address",
          "name": "owner",
          "type": "address"
        },
        {
          "indexed": true,
          "internalType": "address",
          "name": "operator",
          "type": "address"
        },
        {
          "indexed": false,
          "internalType": "bool",
          "name": "approved",
          "type": "bool"
        }
      ],
      "name": "ApprovalForAll",
      "type": "event"
    },
    {
      "anonymous": false,
      "inputs": [
        {
          "indexed": true,
          "internalType": "address",
          "name": "from",
          "type": "address"
        },
        {
          "indexed": true,
          "internalType": "address",
          "name": "to",
          "type": "address"
        },
        {
          "indexed": true,
          "internalType": "uint256",
          "name": "tokenId",
          "type": "uint256"
        }
      ],
      "name": "Transfer",
      "type": "event"
    },
    {
      "inputs": [
        {
          "internalType": "address",
          "name": "to",
          "type": "address"
        },
        {
          "internalType": "uint256",
          "name": "tokenId",
          "type": "uint256"
        }
      ],
      "name": "approve",
      "outputs": [],
      "stateMutability": "nonpayable",
      "type": "function"
    },
    {
      "inputs": [
        {
          "internalType": "address",
          "name": "owner",
          "type": "address"
        }
      ],
      "name": "balanceOf",
      "outputs": [
        {
          "internalType": "uint256",
          "name": "",
          "type": "uint256"
        }
      ],
      "stateMutability": "view",
      "type": "function"
    },
    {
      "inputs": [
        {
          "internalType": "uint256",
          "name": "tokenId",
          "type": "uint256"
        }
      ],
      "name": "getApproved",
      "outputs": [
        {
          "internalType": "address",
          "name": "",
          "type": "address"
        }
      ],
      "stateMutability": "view",
      "type": "function"
    },
    {
      "inputs": [
        {
          "internalType": "address",
          "name": "owner",
          "type": "address"
        },
        {
          "internalType": "address",
          "name": "operator",
          "type": "address"
        }
      ],
      "name": "isApprovedForAll",
      "outputs": [
        {
          "internalType": "bool",
          "name": "",
          "type": "bool"
        }
      ],
      "stateMutability": "view",
      "type": "function"
    },
    {
      "inputs": [
        {
          "internalType": "address",
          "name": "_to",
          "type": "address"
        }
      ],
      "name": "mintTo",
      "outputs": [],
      "stateMutability": "nonpayable",
      "type": "function"
    },
    {
      "inputs": [],
      "name": "name",
      "outputs": [
        {
          "internalType": "string",
          "name": "",
          "type": "string"
        }
      ],
      "stateMutability": "view",
      "type": "function"
    },
    {
      "inputs": [
        {
          "internalType": "uint256",
          "name": "tokenId",
          "type": "uint256"
        }
      ],
      "name": "ownerOf",
      "outputs": [
        {
          "internalType": "address",
          "name": "",
          "type": "address"
        }
      ],
      "stateMutability": "view",
      "type": "function"
    },
    {
      "inputs": [
        {
          "internalType": "address",
          "name": "from",
          "type": "address"
        },
        {
          "internalType": "address",
          "name": "to",
          "type": "address"
        },
        {
          "internalType": "uint256",
          "name": "tokenId",
          "type": "uint256"
        }
      ],
      "name": "safeTransferFrom",
      "outputs": [],
      "stateMutability": "nonpayable",
      "type": "function"
    },
    {
      "inputs": [
        {
          "internalType": "address",
          "name": "from",
          "type": "address"
        },
        {
          "internalType": "address",
          "name": "to",
          "type": "address"
        },
        {
          "internalType": "uint256",
          "name": "tokenId",
          "type": "uint256"
        },
        {
          "internalType": "bytes",
          "name": "_data",
          "type": "bytes"
        }
      ],
      "name": "safeTransferFrom",
      "outputs": [],
      "stateMutability": "nonpayable",
      "type": "function"
    },
    {
      "inputs": [
        {
          "internalType": "address",
          "name": "operator",
          "type": "address"
        },
        {
          "internalType": "bool",
          "name": "approved",
          "type": "bool"
        }
      ],
      "name": "setApprovalForAll",
      "outputs": [],
      "stateMutability": "nonpayable",
      "type": "function"
    },
    {
      "inputs": [
        {
          "internalType": "bytes4",
          "name": "interfaceId",
          "type": "bytes4"
        }
      ],
      "name": "supportsInterface",
      "outputs": [
        {
          "internalType": "bool",
          "name": "",
          "type": "bool"
        }
      ],
      "stateMutability": "view",
      "type": "function"
    },
    {
      "inputs": [],
      "name": "symbol",
      "outputs": [
        {
          "internalType": "string",
          "name": "",
          "type": "string"
        }
      ],
      "stateMutability": "view",
      "type": "function"
    },
    {
      "inputs": [
        {
          "internalType": "uint256",
          "name": "tokenId",
          "type": "uint256"
        }
      ],
      "name": "tokenURI",
      "outputs": [
        {
          "internalType": "string",
          "name": "",
          "type": "string"
        }
      ],
      "stateMutability": "pure",
      "type": "function"
    },
    {
      "inputs": [
        {
          "internalType": "address",
          "name": "from",
          "type": "address"
        },
        {
          "internalType": "address",
          "name": "to",
          "type": "address"
        },
        {
          "internalType": "uint256",
          "name": "tokenId",
          "type": "uint256"
        }
      ],
      "name": "transferFrom",
      "outputs": [],
      "stateMutability": "nonpayable",
      "type": "function"
    }
  ],
  "bytecode": "0x608060405260006006553480156200001657600080fd5b50604051620032853803806200328583398181016040528101906200003c91906200019c565b81818160009080519060200190620000569291906200007a565b5080600190805190602001906200006f9291906200007a565b50505050506200037f565b8280546200008890620002a4565b90600052602060002090601f016020900481019282620000ac5760008555620000f8565b82601f10620000c757805160ff1916838001178555620000f8565b82800160010185558215620000f8579182015b82811115620000f7578251825591602001919060010190620000da565b5b5090506200010791906200010b565b5090565b5b80821115620001265760008160009055506001016200010c565b5090565b6000620001416200013b8462000238565b6200020f565b9050828152602081018484840111156200015a57600080fd5b620001678482856200026e565b509392505050565b600082601f8301126200018157600080fd5b8151620001938482602086016200012a565b91505092915050565b60008060408385031215620001b057600080fd5b600083015167ffffffffffffffff811115620001cb57600080fd5b620001d9858286016200016f565b925050602083015167ffffffffffffffff811115620001f757600080fd5b62000205858286016200016f565b9150509250929050565b60006200021b6200022e565b9050620002298282620002da565b919050565b6000604051905090565b600067ffffffffffffffff8211156200025657620002556200033f565b5b62000261826200036e565b9050602081019050919050565b60005b838110156200028e57808201518184015260208101905062000271565b838111156200029e576000848401525b50505050565b60006002820490506001821680620002bd57607f821691505b60208210811415620002d457620002d362000310565b5b50919050565b620002e5826200036e565b810181811067ffffffffffffffff821117156200030757620003066200033f565b5b80604052505050565b7f4e487b7100000000000000000000000000000000000000000000000000000000600052602260045260246000fd5b7f4e487b7100000000000000000000000000000000000000000000000000000000600052604160045260246000fd5b6000601f19601f8301169050919050565b612ef6806200038f6000396000f3fe608060405234801561001057600080fd5b50600436106100ea5760003560e01c806370a082311161008c578063a22cb46511610066578063a22cb4651461025b578063b88d4fde14610277578063c87b56dd14610293578063e985e9c5146102c3576100ea565b806370a08231146101f1578063755edd171461022157806395d89b411461023d576100ea565b8063095ea7b3116100c8578063095ea7b31461016d57806323b872dd1461018957806342842e0e146101a55780636352211e146101c1576100ea565b806301ffc9a7146100ef57806306fdde031461011f578063081812fc1461013d575b600080fd5b61010960048036038101906101049190611d87565b6102f3565b6040516101169190612224565b60405180910390f35b6101276103d5565b604051610134919061223f565b60405180910390f35b61015760048036038101906101529190611dd9565b610467565b60405161016491906121bd565b60405180910390f35b61018760048036038101906101829190611d4b565b6104ec565b005b6101a3600480360381019061019e9190611c45565b610604565b005b6101bf60048036038101906101ba9190611c45565b610664565b005b6101db60048036038101906101d69190611dd9565b610684565b6040516101e891906121bd565b60405180910390f35b61020b60048036038101906102069190611be0565b610736565b6040516102189190612431565b60405180910390f35b61023b60048036038101906102369190611be0565b6107ee565b005b61024561084f565b604051610252919061223f565b60405180910390f35b61027560048036038101906102709190611d0f565b6108e1565b005b610291600480360381019061028c9190611c94565b6108f7565b005b6102ad60048036038101906102a89190611dd9565b610959565b6040516102ba919061223f565b60405180910390f35b6102dd60048036038101906102d89190611c09565b610bcf565b6040516102ea9190612224565b60405180910390f35b60007f80ac58cd000000000000000000000000000000000000000000000000000000007bffffffffffffffffffffffffffffffffffffffffffffffffffffffff1916827bffffffffffffffffffffffffffffffffffffffffffffffffffffffff191614806103be57507f5b5e139f000000000000000000000000000000000000000000000000000000007bffffffffffffffffffffffffffffffffffffffffffffffffffffffff1916827bffffffffffffffffffffffffffffffffffffffffffffffffffffffff1916145b806103ce57506103cd82610c63565b5b9050919050565b6060600080546103e4906126b0565b80601f0160208091040260200160405190810160405280929190818152602001828054610410906126b0565b801561045d5780601f106104325761010080835404028352916020019161045d565b820191906000526020600020905b81548152906001019060200180831161044057829003601f168201915b5050505050905090565b600061047282610ccd565b6104b1576040517f08c379a00000000000000000000000000000000000000000000000000000000081526004016104a8906123d1565b60405180910390fd5b6004600083815260200190815260200160002060009054906101000a900473ffffffffffffffffffffffffffffffffffffffff169050919050565b60006104f782610684565b90508073ffffffffffffffffffffffffffffffffffffffff168373ffffffffffffffffffffffffffffffffffffffff161415610568576040517f08c379a000000000000000000000000000000000000000000000000000000000815260040161055f906123f1565b60405180910390fd5b8073ffffffffffffffffffffffffffffffffffffffff16610587610d39565b73ffffffffffffffffffffffffffffffffffffffff1614806105b657506105b5816105b0610d39565b610bcf565b5b6105f5576040517f08c379a00000000000000000000000000000000000000000000000000000000081526004016105ec90612351565b60405180910390fd5b6105ff8383610d41565b505050565b61061561060f610d39565b82610dfa565b610654576040517f08c379a000000000000000000000000000000000000000000000000000000000815260040161064b90612411565b60405180910390fd5b61065f838383610ed8565b505050565b61067f838383604051806020016040528060008152506108f7565b505050565b6000806002600084815260200190815260200160002060009054906101000a900473ffffffffffffffffffffffffffffffffffffffff169050600073ffffffffffffffffffffffffffffffffffffffff168173ffffffffffffffffffffffffffffffffffffffff16141561072d576040517f08c379a000000000000000000000000000000000000000000000000000000000815260040161072490612391565b60405180910390fd5b80915050919050565b60008073ffffffffffffffffffffffffffffffffffffffff168273ffffffffffffffffffffffffffffffffffffffff1614156107a7576040517f08c379a000000000000000000000000000000000000000000000000000000000815260040161079e90612371565b60405180910390fd5b600360008373ffffffffffffffffffffffffffffffffffffffff1673ffffffffffffffffffffffffffffffffffffffff168152602001908152602001600020549050919050565b60006107f861113f565b90506108396040518060400160405280600d81526020017f6e6577546f6b656e4964203a200000000000000000000000000000000000000081525082611155565b61084382826111f1565b61084b6113cb565b5050565b60606001805461085e906126b0565b80601f016020809104026020016040519081016040528092919081815260200182805461088a906126b0565b80156108d75780601f106108ac576101008083540402835291602001916108d7565b820191906000526020600020905b8154815290600101906020018083116108ba57829003601f168201915b5050505050905090565b6108f36108ec610d39565b83836113e5565b5050565b610908610902610d39565b83610dfa565b610947576040517f08c379a000000000000000000000000000000000000000000000000000000000815260040161093e90612411565b60405180910390fd5b61095384848484611552565b50505050565b6060610963611ae7565b60405180610120016040528060fd8152602001612d8460fd9139816000601181106109b7577f4e487b7100000000000000000000000000000000000000000000000000000000600052603260045260246000fd5b60200201819052506109c8836115ae565b81600160118110610a02577f4e487b7100000000000000000000000000000000000000000000000000000000600052603260045260246000fd5b60200201819052506040518060400160405280600d81526020017f3c2f746578743e3c2f7376673e0000000000000000000000000000000000000081525081600260118110610a7a577f4e487b7100000000000000000000000000000000000000000000000000000000600052603260045260246000fd5b6020020181905250600081600060118110610abe577f4e487b7100000000000000000000000000000000000000000000000000000000600052603260045260246000fd5b602002015182600160118110610afd577f4e487b7100000000000000000000000000000000000000000000000000000000600052603260045260246000fd5b602002015183600260118110610b3c577f4e487b7100000000000000000000000000000000000000000000000000000000600052603260045260246000fd5b6020020151604051602001610b5393929190612125565b60405160208183030381529060405290506000610ba0610b72866115ae565b610b7b8461175b565b604051602001610b8c929190612178565b60405160208183030381529060405261175b565b905080604051602001610bb39190612156565b6040516020818303038152906040529150819350505050919050565b6000600560008473ffffffffffffffffffffffffffffffffffffffff1673ffffffffffffffffffffffffffffffffffffffff16815260200190815260200160002060008373ffffffffffffffffffffffffffffffffffffffff1673ffffffffffffffffffffffffffffffffffffffff16815260200190815260200160002060009054906101000a900460ff16905092915050565b60007f01ffc9a7000000000000000000000000000000000000000000000000000000007bffffffffffffffffffffffffffffffffffffffffffffffffffffffff1916827bffffffffffffffffffffffffffffffffffffffffffffffffffffffff1916149050919050565b60008073ffffffffffffffffffffffffffffffffffffffff166002600084815260200190815260200160002060009054906101000a900473ffffffffffffffffffffffffffffffffffffffff1673ffffffffffffffffffffffffffffffffffffffff1614159050919050565b600033905090565b816004600083815260200190815260200160002060006101000a81548173ffffffffffffffffffffffffffffffffffffffff021916908373ffffffffffffffffffffffffffffffffffffffff160217905550808273ffffffffffffffffffffffffffffffffffffffff16610db483610684565b73ffffffffffffffffffffffffffffffffffffffff167f8c5be1e5ebec7d5bd14f71427d1e84f3dd0314c0f7b2291e5b200ac8c7c3b92560405160405180910390a45050565b6000610e0582610ccd565b610e44576040517f08c379a0000000000000000000000000000000000000000000000000000000008152600401610e3b90612331565b60405180910390fd5b6000610e4f83610684565b90508073ffffffffffffffffffffffffffffffffffffffff168473ffffffffffffffffffffffffffffffffffffffff161480610ebe57508373ffffffffffffffffffffffffffffffffffffffff16610ea684610467565b73ffffffffffffffffffffffffffffffffffffffff16145b80610ecf5750610ece8185610bcf565b5b91505092915050565b8273ffffffffffffffffffffffffffffffffffffffff16610ef882610684565b73ffffffffffffffffffffffffffffffffffffffff1614610f4e576040517f08c379a0000000000000000000000000000000000000000000000000000000008152600401610f45906122b1565b60405180910390fd5b600073ffffffffffffffffffffffffffffffffffffffff168273ffffffffffffffffffffffffffffffffffffffff161415610fbe576040517f08c379a0000000000000000000000000000000000000000000000000000000008152600401610fb5906122f1565b60405180910390fd5b610fc98383836118fa565b610fd4600082610d41565b6001600360008573ffffffffffffffffffffffffffffffffffffffff1673ffffffffffffffffffffffffffffffffffffffff168152602001908152602001600020600082825461102491906125c6565b925050819055506001600360008473ffffffffffffffffffffffffffffffffffffffff1673ffffffffffffffffffffffffffffffffffffffff168152602001908152602001600020600082825461107b91906124e5565b92505081905550816002600083815260200190815260200160002060006101000a81548173ffffffffffffffffffffffffffffffffffffffff021916908373ffffffffffffffffffffffffffffffffffffffff160217905550808273ffffffffffffffffffffffffffffffffffffffff168473ffffffffffffffffffffffffffffffffffffffff167fddf252ad1be2c89b69c2b068fc378daa952ba7f163c4a11628f55a4df523b3ef60405160405180910390a461113a8383836118ff565b505050565b6000600160065461115091906124e5565b905090565b6111ed828260405160240161116b929190612261565b6040516020818303038152906040527f9710a9d0000000000000000000000000000000000000000000000000000000007bffffffffffffffffffffffffffffffffffffffffffffffffffffffff19166020820180517bffffffffffffffffffffffffffffffffffffffffffffffffffffffff8381831617835250505050611904565b5050565b600073ffffffffffffffffffffffffffffffffffffffff168273ffffffffffffffffffffffffffffffffffffffff161415611261576040517f08c379a0000000000000000000000000000000000000000000000000000000008152600401611258906123b1565b60405180910390fd5b61126a81610ccd565b156112aa576040517f08c379a00000000000000000000000000000000000000000000000000000000081526004016112a1906122d1565b60405180910390fd5b6112b6600083836118fa565b6001600360008473ffffffffffffffffffffffffffffffffffffffff1673ffffffffffffffffffffffffffffffffffffffff168152602001908152602001600020600082825461130691906124e5565b92505081905550816002600083815260200190815260200160002060006101000a81548173ffffffffffffffffffffffffffffffffffffffff021916908373ffffffffffffffffffffffffffffffffffffffff160217905550808273ffffffffffffffffffffffffffffffffffffffff16600073ffffffffffffffffffffffffffffffffffffffff167fddf252ad1be2c89b69c2b068fc378daa952ba7f163c4a11628f55a4df523b3ef60405160405180910390a46113c7600083836118ff565b5050565b600660008154809291906113de90612713565b9190505550565b8173ffffffffffffffffffffffffffffffffffffffff168373ffffffffffffffffffffffffffffffffffffffff161415611454576040517f08c379a000000000000000000000000000000000000000000000000000000000815260040161144b90612311565b60405180910390fd5b80600560008573ffffffffffffffffffffffffffffffffffffffff1673ffffffffffffffffffffffffffffffffffffffff16815260200190815260200160002060008473ffffffffffffffffffffffffffffffffffffffff1673ffffffffffffffffffffffffffffffffffffffff16815260200190815260200160002060006101000a81548160ff0219169083151502179055508173ffffffffffffffffffffffffffffffffffffffff168373ffffffffffffffffffffffffffffffffffffffff167f17307eab39ab6107e8899845ad3d59bd9653f200f220920489ca2b5937696c31836040516115459190612224565b60405180910390a3505050565b61155d848484610ed8565b6115698484848461192d565b6115a8576040517f08c379a000000000000000000000000000000000000000000000000000000000815260040161159f90612291565b60405180910390fd5b50505050565b606060008214156115f6576040518060400160405280600181526020017f30000000000000000000000000000000000000000000000000000000000000008152509050611756565b600082905060005b6000821461162857808061161190612713565b915050600a82611621919061253b565b91506115fe565b60008167ffffffffffffffff81111561166a577f4e487b7100000000000000000000000000000000000000000000000000000000600052604160045260246000fd5b6040519080825280601f01601f19166020018201604052801561169c5781602001600182028036833780820191505090505b5090505b6000851461174f576001826116b591906125c6565b9150600a856116c4919061275c565b60306116d091906124e5565b60f81b81838151811061170c577f4e487b7100000000000000000000000000000000000000000000000000000000600052603260045260246000fd5b60200101907effffffffffffffffffffffffffffffffffffffffffffffffffffffffffffff1916908160001a905350600a85611748919061253b565b94506116a0565b8093505050505b919050565b606060008251141561177e576040518060200160405280600081525090506118f5565b6000604051806060016040528060408152602001612e8160409139905060006003600285516117ad91906124e5565b6117b7919061253b565b60046117c3919061256c565b905060006020826117d491906124e5565b67ffffffffffffffff811115611813577f4e487b7100000000000000000000000000000000000000000000000000000000600052604160045260246000fd5b6040519080825280601f01601f1916602001820160405280156118455781602001600182028036833780820191505090505b509050818152600183018586518101602084015b818310156118b4576003830192508251603f8160121c168501518253600182019150603f81600c1c168501518253600182019150603f8160061c168501518253600182019150603f8116850151825360018201915050611859565b6003895106600181146118ce57600281146118de576118e9565b613d3d60f01b60028303526118e9565b603d60f81b60018303525b50505050508093505050505b919050565b505050565b505050565b60008151905060006a636f6e736f6c652e6c6f679050602083016000808483855afa5050505050565b600061194e8473ffffffffffffffffffffffffffffffffffffffff16611ac4565b15611ab7578373ffffffffffffffffffffffffffffffffffffffff1663150b7a02611977610d39565b8786866040518563ffffffff1660e01b815260040161199994939291906121d8565b602060405180830381600087803b1580156119b357600080fd5b505af19250505080156119e457506040513d601f19601f820116820180604052508101906119e19190611db0565b60015b611a67573d8060008114611a14576040519150601f19603f3d011682016040523d82523d6000602084013e611a19565b606091505b50600081511415611a5f576040517f08c379a0000000000000000000000000000000000000000000000000000000008152600401611a5690612291565b60405180910390fd5b805181602001fd5b63150b7a0260e01b7bffffffffffffffffffffffffffffffffffffffffffffffffffffffff1916817bffffffffffffffffffffffffffffffffffffffffffffffffffffffff191614915050611abc565b600190505b949350505050565b6000808273ffffffffffffffffffffffffffffffffffffffff163b119050919050565b6040518061022001604052806011905b6060815260200190600190039081611af75790505090565b6000611b22611b1d84612471565b61244c565b905082815260208101848484011115611b3a57600080fd5b611b4584828561266e565b509392505050565b600081359050611b5c81612d27565b92915050565b600081359050611b7181612d3e565b92915050565b600081359050611b8681612d55565b92915050565b600081519050611b9b81612d55565b92915050565b600082601f830112611bb257600080fd5b8135611bc2848260208601611b0f565b91505092915050565b600081359050611bda81612d6c565b92915050565b600060208284031215611bf257600080fd5b6000611c0084828501611b4d565b91505092915050565b60008060408385031215611c1c57600080fd5b6000611c2a85828601611b4d565b9250506020611c3b85828601611b4d565b9150509250929050565b600080600060608486031215611c5a57600080fd5b6000611c6886828701611b4d565b9350506020611c7986828701611b4d565b9250506040611c8a86828701611bcb565b9150509250925092565b60008060008060808587031215611caa57600080fd5b6000611cb887828801611b4d565b9450506020611cc987828801611b4d565b9350506040611cda87828801611bcb565b925050606085013567ffffffffffffffff811115611cf757600080fd5b611d0387828801611ba1565b91505092959194509250565b60008060408385031215611d2257600080fd5b6000611d3085828601611b4d565b9250506020611d4185828601611b62565b9150509250929050565b60008060408385031215611d5e57600080fd5b6000611d6c85828601611b4d565b9250506020611d7d85828601611bcb565b9150509250929050565b600060208284031215611d9957600080fd5b6000611da784828501611b77565b91505092915050565b600060208284031215611dc257600080fd5b6000611dd084828501611b8c565b91505092915050565b600060208284031215611deb57600080fd5b6000611df984828501611bcb565b91505092915050565b611e0b816125fa565b82525050565b611e1a8161260c565b82525050565b6000611e2b826124a2565b611e3581856124b8565b9350611e4581856020860161267d565b611e4e81612849565b840191505092915050565b6000611e64826124ad565b611e6e81856124c9565b9350611e7e81856020860161267d565b611e8781612849565b840191505092915050565b6000611e9d826124ad565b611ea781856124da565b9350611eb781856020860161267d565b80840191505092915050565b6000611ed06032836124c9565b9150611edb8261285a565b604082019050919050565b6000611ef36025836124c9565b9150611efe826128a9565b604082019050919050565b6000611f16601c836124c9565b9150611f21826128f8565b602082019050919050565b6000611f396024836124c9565b9150611f4482612921565b604082019050919050565b6000611f5c6019836124c9565b9150611f6782612970565b602082019050919050565b6000611f7f602c836124c9565b9150611f8a82612999565b604082019050919050565b6000611fa26038836124c9565b9150611fad826129e8565b604082019050919050565b6000611fc5602a836124c9565b9150611fd082612a37565b604082019050919050565b6000611fe86029836124c9565b9150611ff382612a86565b604082019050919050565b600061200b6002836124da565b915061201682612ad5565b600282019050919050565b600061202e6020836124c9565b915061203982612afe565b602082019050919050565b6000612051602c836124c9565b915061205c82612b27565b604082019050919050565b60006120746021836124c9565b915061207f82612b76565b604082019050919050565b6000612097601d836124da565b91506120a282612bc5565b601d82019050919050565b60006120ba6082836124da565b91506120c582612bee565b608282019050919050565b60006120dd6031836124c9565b91506120e882612caf565b604082019050919050565b60006121006011836124da565b915061210b82612cfe565b601182019050919050565b61211f81612664565b82525050565b60006121318286611e92565b915061213d8285611e92565b91506121498284611e92565b9150819050949350505050565b60006121618261208a565b915061216d8284611e92565b915081905092915050565b6000612183826120f3565b915061218f8285611e92565b915061219a826120ad565b91506121a68284611e92565b91506121b182611ffe565b91508190509392505050565b60006020820190506121d26000830184611e02565b92915050565b60006080820190506121ed6000830187611e02565b6121fa6020830186611e02565b6122076040830185612116565b81810360608301526122198184611e20565b905095945050505050565b60006020820190506122396000830184611e11565b92915050565b600060208201905081810360008301526122598184611e59565b905092915050565b6000604082019050818103600083015261227b8185611e59565b905061228a6020830184612116565b9392505050565b600060208201905081810360008301526122aa81611ec3565b9050919050565b600060208201905081810360008301526122ca81611ee6565b9050919050565b600060208201905081810360008301526122ea81611f09565b9050919050565b6000602082019050818103600083015261230a81611f2c565b9050919050565b6000602082019050818103600083015261232a81611f4f565b9050919050565b6000602082019050818103600083015261234a81611f72565b9050919050565b6000602082019050818103600083015261236a81611f95565b9050919050565b6000602082019050818103600083015261238a81611fb8565b9050919050565b600060208201905081810360008301526123aa81611fdb565b9050919050565b600060208201905081810360008301526123ca81612021565b9050919050565b600060208201905081810360008301526123ea81612044565b9050919050565b6000602082019050818103600083015261240a81612067565b9050919050565b6000602082019050818103600083015261242a816120d0565b9050919050565b60006020820190506124466000830184612116565b92915050565b6000612456612467565b905061246282826126e2565b919050565b6000604051905090565b600067ffffffffffffffff82111561248c5761248b61281a565b5b61249582612849565b9050602081019050919050565b600081519050919050565b600081519050919050565b600082825260208201905092915050565b600082825260208201905092915050565b600081905092915050565b60006124f082612664565b91506124fb83612664565b9250827fffffffffffffffffffffffffffffffffffffffffffffffffffffffffffffffff038211156125305761252f61278d565b5b828201905092915050565b600061254682612664565b915061255183612664565b925082612561576125606127bc565b5b828204905092915050565b600061257782612664565b915061258283612664565b9250817fffffffffffffffffffffffffffffffffffffffffffffffffffffffffffffffff04831182151516156125bb576125ba61278d565b5b828202905092915050565b60006125d182612664565b91506125dc83612664565b9250828210156125ef576125ee61278d565b5b828203905092915050565b600061260582612644565b9050919050565b60008115159050919050565b60007fffffffff0000000000000000000000000000000000000000000000000000000082169050919050565b600073ffffffffffffffffffffffffffffffffffffffff82169050919050565b6000819050919050565b82818337600083830152505050565b60005b8381101561269b578082015181840152602081019050612680565b838111156126aa576000848401525b50505050565b600060028204905060018216806126c857607f821691505b602082108114156126dc576126db6127eb565b5b50919050565b6126eb82612849565b810181811067ffffffffffffffff8211171561270a5761270961281a565b5b80604052505050565b600061271e82612664565b91507fffffffffffffffffffffffffffffffffffffffffffffffffffffffffffffffff8214156127515761275061278d565b5b600182019050919050565b600061276782612664565b915061277283612664565b925082612782576127816127bc565b5b828206905092915050565b7f4e487b7100000000000000000000000000000000000000000000000000000000600052601160045260246000fd5b7f4e487b7100000000000000000000000000000000000000000000000000000000600052601260045260246000fd5b7f4e487b7100000000000000000000000000000000000000000000000000000000600052602260045260246000fd5b7f4e487b7100000000000000000000000000000000000000000000000000000000600052604160045260246000fd5b6000601f19601f8301169050919050565b7f4552433732313a207472616e7366657220746f206e6f6e20455243373231526560008201527f63656976657220696d706c656d656e7465720000000000000000000000000000602082015250565b7f4552433732313a207472616e736665722066726f6d20696e636f72726563742060008201527f6f776e6572000000000000000000000000000000000000000000000000000000602082015250565b7f4552433732313a20746f6b656e20616c7265616479206d696e74656400000000600082015250565b7f4552433732313a207472616e7366657220746f20746865207a65726f2061646460008201527f7265737300000000000000000000000000000000000000000000000000000000602082015250565b7f4552433732313a20617070726f766520746f2063616c6c657200000000000000600082015250565b7f4552433732313a206f70657261746f7220717565727920666f72206e6f6e657860008201527f697374656e7420746f6b656e0000000000000000000000000000000000000000602082015250565b7f4552433732313a20617070726f76652063616c6c6572206973206e6f74206f7760008201527f6e6572206e6f7220617070726f76656420666f7220616c6c0000000000000000602082015250565b7f4552433732313a2062616c616e636520717565727920666f7220746865207a6560008201527f726f206164647265737300000000000000000000000000000000000000000000602082015250565b7f4552433732313a206f776e657220717565727920666f72206e6f6e657869737460008201527f656e7420746f6b656e0000000000000000000000000000000000000000000000602082015250565b7f227d000000000000000000000000000000000000000000000000000000000000600082015250565b7f4552433732313a206d696e7420746f20746865207a65726f2061646472657373600082015250565b7f4552433732313a20617070726f76656420717565727920666f72206e6f6e657860008201527f697374656e7420746f6b656e0000000000000000000000000000000000000000602082015250565b7f4552433732313a20617070726f76616c20746f2063757272656e74206f776e6560008201527f7200000000000000000000000000000000000000000000000000000000000000602082015250565b7f646174613a6170706c69636174696f6e2f6a736f6e3b6261736536342c000000600082015250565b7f222c20226465736372697074696f6e223a20224120636f6e636973652048617260008201527f64686174207475746f7269616c204261646765204e46542077697468206f6e2d60208201527f636861696e2053564720696d61676573206c696b65206c6f6f6b2e222c20226960408201527f6d616765223a2022646174613a696d6167652f7376672b786d6c3b626173653660608201527f342c000000000000000000000000000000000000000000000000000000000000608082015250565b7f4552433732313a207472616e736665722063616c6c6572206973206e6f74206f60008201527f776e6572206e6f7220617070726f766564000000000000000000000000000000602082015250565b7f7b226e616d65223a202242616467652023000000000000000000000000000000600082015250565b612d30816125fa565b8114612d3b57600080fd5b50565b612d478161260c565b8114612d5257600080fd5b50565b612d5e81612618565b8114612d6957600080fd5b50565b612d7581612664565b8114612d8057600080fd5b5056fe3c73766720786d6c6e733d22687474703a2f2f7777772e77332e6f72672f323030302f73766722207072657365727665417370656374526174696f3d22784d696e594d696e206d656574222076696577426f783d223020302033353020333530223e3c7374796c653e2e62617365207b2066696c6c3a2077686974653b20666f6e742d66616d696c793a2073657269663b20666f6e742d73697a653a20313470783b207d3c2f7374796c653e3c726563742077696474683d223130302522206865696768743d2231303025222066696c6c3d22626c61636b22202f3e3c7465787420783d2231302220793d2232302220636c6173733d2262617365223e4142434445464748494a4b4c4d4e4f505152535455565758595a6162636465666768696a6b6c6d6e6f707172737475767778797a303132333435363738392b2fa26469706673582212206a2f0966f61e876300cafa4573d5ab46f3fd2da614a8bc98ac28ac341661cad864736f6c63430008040033",
  "linkReferences": {},
  "deployedLinkReferences": {}
}